{
  "contractName": "Storage",
  "abi": [
    {
      "inputs": [
        {
          "internalType": "uint160",
          "name": "input",
          "type": "uint160"
        }
      ],
      "name": "store",
      "outputs": [],
      "stateMutability": "nonpayable",
      "type": "function"
    },
    {
      "inputs": [],
      "name": "get",
      "outputs": [
        {
          "internalType": "uint160",
          "name": "",
          "type": "uint160"
        }
      ],
      "stateMutability": "view",
      "type": "function",
      "constant": true
    }
  ],
  "bytecode": "0x608060405234801561001057600080fd5b506101b6806100206000396000f3fe608060405234801561001057600080fd5b50600436106100365760003560e01c80636d4ce63c1461003b578063d04ad49514610059575b600080fd5b610043610075565b604051610050919061012e565b60405180910390f35b610073600480360381019061006e91906100f6565b61009e565b005b60008060009054906101000a900473ffffffffffffffffffffffffffffffffffffffff16905090565b806000806101000a81548173ffffffffffffffffffffffffffffffffffffffff021916908373ffffffffffffffffffffffffffffffffffffffff16021790555050565b6000813590506100f081610169565b92915050565b60006020828403121561010857600080fd5b6000610116848285016100e1565b91505092915050565b61012881610149565b82525050565b6000602082019050610143600083018461011f565b92915050565b600073ffffffffffffffffffffffffffffffffffffffff82169050919050565b61017281610149565b811461017d57600080fd5b5056fea2646970667358221220755c20f0b7578fd0ca61b61141a52656ac17572e7dafc1cc2a08860cf9d4d00164736f6c63430008030033",
  "immutableReferences": {},
  "source": "// SPDX-License-Identifier: GPL-3.0\npragma solidity ^0.8.0;\n\ncontract Storage {\n\n    uint160 number;\n\n    function store(uint160 input) public {\n        number = input;\n    }\n\n    function get() public view returns (uint160) {\n        return number;\n    }\n}",
  "sourcePath": "/Users/freddycaceres/Workspace/helpers/truffle-tests/contracts/Storage.sol",
  "compiler": {
    "name": "solc",
    "version": "0.8.3+commit.8d00100c.Emscripten.clang"
  },
  "schemaVersion": "3.4.1",
  "updatedAt": "2021-08-23T10:10:48.137Z",
  "networkType": "ethereum",
  "devdoc": {
    "kind": "dev",
    "methods": {},
    "version": 1
  },
  "userdoc": {
    "kind": "user",
    "methods": {},
    "version": 1
  }
}